:020000040800F2
:10000000A0090020A901000885250008FF1F00089D
:1000100083250008D50A0008A5300008000000006C
:100020000000000000000000000000001929000886
:10003000D70A000800000000612800085D2C0008B5
:10004000C3010008C3010008C3010008C301000880
:10005000C3010008C3010008D90A0008C301000851
:10006000C3010008C3010008C3010008C301000860
:10007000C3010008C3010008C3010008C301000850
:10008000C3010008C3010008C3010008000000000C
:10009000000000000000000000000000FD0A000851
:1000A000C3010008C3010008C3010008C301000820
:1000B000C3010008892D0008C3010008C30100081E
:1000C000C3010008C3010008C3010008C301000800
:1000D000C3010008C3010008C301000800000000BC
:1000E000C3010008C3010008C301000800000000AC
:1000F000000000000000000000000000C301000834
:1001000000000000C3010008C3010008C30100088B
:1001100000000000000000000000000000000000DF
:10012000C3010008C3010008C3010008C30100089F
:10013000C3010008000000000000000000000000F3
:10014000000000000000000000000000C3010008E3
:10015000C3010008C3010008C3010008C30100086F
:10016000C3010008C30100080000000000000000F7
:10017000000000000000000000000000000000007F
:1001800000000000C30100080000000000000000A3
:10019000C3010008DFF80CD000F08AFB00480047DC
:1001A0001D450008A0090020064880470648004772
:1001B000FEE7FEE7FEE7FEE7FEE7FEE7FEE7FEE717
:1001C000FEE7FEE7352D0008950100082DE9F05FF8
:1001D0000546002092469B468846064681464024B6
:1001E0001BE0284641464746224600F07AFA53462D
:1001F0005A46C01A914110D311461846224600F0C3
:1002000061FA2D1A67EB01084F46224601200021B2
:1002100000F058FA17EB00094E41201EA4F101042A
:10022000DFDC484631462A464346BDE8F09F2DE9CB
:10023000FE4F804681EA0300C00F0C46009021F07B
:10024000004123F00045B8EB0200A94105D2404629
:10025000214690461C460B46024623F000401043C0
:1002600047D0270DC7F30A00C3F30A510290401A82
:10027000019040286BDAC3F3130040F4801B009810
:10028000924620B10023D2EB030A63EB0B0B0198DB
:100290005946C0F14002504600F014FA06460D4699
:1002A00050465946019A00F02CFA10EB08006141C3
:1002B000002487EA115284EAE7731A4340D0009A77
:1002C00062B3019A012A4FEA075215DC001B61EB69
:1002D00002014FF0004202EA0752CDE90042001C41
:1002E00041F5801132462B4600F063FA03B0BDE8B9
:1002F000F08F40462146F9E7001B61EB0201001C2C
:1003000041F5801300185B412018A2F5001747EB58
:10031000030140EAD570B6196D4111E06D084FEA4E
:10032000360645EAC0754FEA0752001B61EB020131
:10033000001C41F5801149084FEA30000019514175
:1003400032462B4603B0BDE8F04F00F023BA0098C8
:10035000012240000023D0EB020263EBE07300981F
:1003600021464FEAE074B8EB000061EB0401E9E7D5
:1003700083F000435BE781F0004158E72DE9FE4F31
:1003800081EA030404F0004421F0004100944FF09E
:10039000000B23F0004350EA01045ED052EA03044C
:1003A0005BD0C3F30A54C1F30A552C44A4F2F334CE
:1003B0000194A0FB0254C1F3130141F48011C3F373
:1003C000130343F4801301FB024400FB034E840A31
:1003D000970A44EA815447EA8357A4FB07680295C9
:1003E0008D0A05FB07854FEA932C04FB0C54270567
:1003F000029D4FEA065847EA1637B5EB08056EEB43
:10040000070C870E920E47EA811742EA8312A7FB78
:100410000201B6EB0B0164EB00042B0D43EA0C3335
:100420005E1844EB1C50DA465146E7FB0201C5F367
:1004300013044FEA0B3343EA14534FEA0432019C8E
:1004400043EA0603A4F10C040294009CCDE900B435
:1004500000F0AFF903B0BDE8F08F00200146F9E7E6
:100460002DE9F04D81EA030404F0004B21F0004532
:1004700014464FF0000A23F0004150EA050220D054
:1004800054EA01021DD0C5F30A570246C5F313030F
:10049000C1F31300C1F30A5640F4801543F48013EE
:1004A000A7EB0608101BD64608F2FD3873EB0500D3
:1004B00002D308F1010801E092185B41B8F1000F86
:1004C00003DA00200146BDE8F08D00204FF48011D2
:1004D000064684460EE0171B73EB050705D3121B77
:1004E00063EB050306434CEA010C49084FEA300070
:1004F00092185B4150EA0107EDD152EA030012D095
:1005000082EA040083EA0501084305D0101BAB41D1
:1005100006D20122002306E000224FF0004302E051
:100520006FF0010253101AEB06004CEB085110EB70
:100530000A0041EB0B01BDE8F04D00F02BB90EB500
:1005400040F2334102910021CDE900110A460B46E9
:1005500000F02FF903B000BD3EB5CA17CB0F002441
:1005600050405140C0186141DA0740F233430094D3
:10057000CDE901232246234600F01BF903B030BD2C
:1005800070B5C1F30A5201F000450024C1F3130114
:1005900040F2FF3341F480119A4201DA002070BD2D
:1005A00040F233439A42A2F2334203DC524200F05B
:1005B00098F800E090402C43F1D0404270BD70B5F7
:1005C000C1F30A5201F000450024C1F3130140F2C7
:1005D000FF3341F480119A4202DA0020014670BDD7
:1005E00040F233439A42A2F2334203DC524200F01B
:1005F00078F801E000F066F82C43F0D00023D0EB4F
:10060000030063EB010170BD00F0004230F00040D8
:100610000AD0C10D01F56071C0F3160042EA015124
:10062000C208400711437047002001467047000090
:1006300030B5041E71F1000404DB4FF00044404269
:1006400064EB0101141E73F1000405DB1C464FF03E
:100650000043524263EB04038B4208BF824230BD29
:1006600001F0004330B421F0004150EA010206D00D
:100670000A0DA2F56072C1F31301002A02DC30BC3E
:1006800000207047440F44EAC104C100E01830BCA8
:1006900000EBC25000F047B830B50B4601460020D1
:1006A0002022012409E021FA02F59D4205D303FA34
:1006B00002F5491B04FA02F52844151EA2F10102B5
:1006C000F1DC30BD202A04DB203A00FA02F10020E0
:1006D00070479140C2F1200320FA03F31943904080
:1006E0007047202A04DB203A21FA02F000217047EB
:1006F00021FA02F3D040C2F120029140084319468A
:100700007047202A06DBCB17203A41FA02F043EA71
:10071000E07306E041FA02F3D040C2F120029140BA
:100720000843194670470029A8BF7047401C49007C
:1007300008BF20F00100704710B4B0FA80FC00FA46
:100740000CF050EA010404BF10BC704749B1CCF171
:10075000200421FA04F411FA0CF118BF01212143FD
:100760000843A3EB0C01CB1D4FEA00614FEA1020B8
:1007700042BF002010BC704700EBC350104400295A
:10078000A4BF10BC7047401C490008BF20F0010006
:1007900010BC704710B5141E73F1000408DA401C39
:1007A00041F1000192185B411A4301D120F0010090
:1007B00010BD2DE9F04D92469B4611B1B1FA81F280
:1007C00002E0B0FA80F220329046FFF77BFF044649
:1007D0000F4640EA0A0041EA0B0153465A460843D5
:1007E00013D0114653EA010019D0C8F14002504617
:1007F000FFF777FF05460E46504659464246FFF73B
:1008000061FF084305D0012004E020463946BDE8D9
:10081000F08D0020054346EAE0762C4337430A98E2
:100820006305E40AA0EB08000022FD0A44EA4754ED
:100830000A3002D500200146E9E701051019694197
:10084000DDE9084500196941BDE8F04DA2E7C1F3B3
:100850000A52C1F3130140F2FF3341F480119A426E
:1008600002DA00200146704740F233439A42A2F276
:10087000334202DC5242FFF734BFFFF723BF0000D0
:1008800030B5041E71F1000404DB4FF00044404217
:1008900064EB0101141E73F1000405DB1C464FF0EC
:1008A0000043524263EB0403994208BF904230BDBB
:1008B000064C074D06E0E06840F0010394E80700AD
:1008C00098471034AC42F6D3FFF768FCC8500008D4
:1008D000E850000870B58C1810F8015B15F007039C
:1008E00001D110F8013B2A1106D110F8012B03E0C9
:1008F00010F8016B01F8016B5B1EF9D12B0705D4D1
:100900000023521E0DD401F8013BFAE710F8013B19
:10091000CB1A921C03E013F8015B01F8015B521E35
:10092000F9D5A142D8D3002070BD000070B5224C8B
:10093000224901226088401C4871000A8871207891
:1009400088705020487220211D4800F0FDFA1D4D8E
:1009500000221A49288880B203F067FD2888002108
:1009600080B203F073FD002003F0C2FC00210F20D1
:1009700003F098FB0006F9D503F0BDFDC4E90401BE
:10098000082003F035FA4DF6A86003F07FFC002044
:1009900003F0D0FB2078401CC1B200202170FF2959
:1009A00000D12070012161706188491C89B2618089
:1009B000042900D1608070BD0800002028030020B9
:1009C000000402406000002070B503F0FBFD03F05E
:1009D00063FE1FA002F068FB012003F0E3FA401C55
:1009E00023D020A002F060FB03F054FE214803F066
:1009F000D1F8012003F0E2FB1E4803F0C3F84FF2E8
:100A0000F00003F037FC012003F0BBFB48F2840048
:100A100003F035FC002003F065FC0121164803F0CB
:100A2000B5FBBDE8704003F0D0B914A002F03CFB68
:100A3000002118A2084601F0B7FE194C4FF47A7550
:100A40000721204600F07CFA284603F07BF8F7E700
:100A500068656C6C6F2064776D31303030210D0A21
:100A600000000000696E69742070617373210D0AC3
:100A7000000000006400002000D0032464776D3182
:100A800030303020696E6974206661696C210D0A0E
:100A900000000000494E4954204641494C000000E6
:100AA0000000024009486121094B01708821417012
:100AB000F021C1700171002282701F211960012193
:100AC000C1710272417181717047000028030020DA
:100AD00060000020FEE7704710B5064C2068C00794
:100AE00005D0054800688047012000F059F9012031
:100AF000206010BD143C01405002002010B5074C8E
:100B00002068C00505D5064800688047012000F030
:100B100047F94FF48070206010BD0000143C014084
:100B200050020020002070472DE9F04700242DEDF1
:100B3000028B82B00D4606460DF10408E9464F1EB1
:100B4000D1E09FED8A0A21461DE020464346CC466F
:100B500015E000BF01FB050252B206EB8202D2EDA6
:100B6000000AF0EEE00AF4EEC00AF1EE10FA04DD3D
:100B70000CF80410B0EE600A1855401C40B2B842A0
:100B8000E8DD491C49B2B942DFDD10EE100AFFF77B
:100B90003BFD9FED778B53EC182BFFF748FB53EC95
:100BA000182BFFF745FD05D1002002B0BDEC028BEC
:100BB000BDE8F08719F90430A34217D0002013E0F4
:100BC00014FB050149B213FB050252B206EB820287
:100BD00006EB8101D2ED000A91ED000AC1ED000A99
:100BE000401C82ED000A40B2B842E9DD18F9043039
:100BF000A34217D0002013E010FB054149B210FBBF
:100C0000053252B206EB820206EB8101D2ED000AF8
:100C100091ED000AC1ED000A401C82ED000A40B2CD
:100C2000B842E9DD14FB054040B206EB8000F7EE68
:100C3000000A90ED000A824680EE801A80ED001ACC
:100C4000002010E0A0420CD014FB050149B206EBD5
:100C50008101DAED000A91ED000A20EE200A81ED13
:100C6000000A401C40B2B842ECDD002122E0A14263
:100C70001ED0002011FB054206EB820216E0A042C6
:100C800012D011FB05035BB206EB8303D2ED000A21
:100C900093ED000A14FB050C06EB8C0C9CED001A7E
:100CA00000EEC10A83ED000A401C40B2B842E6DD06
:100CB000491C49B2B942DADD002010E0A0420CD054
:100CC00010FB054149B206EB81019AED000AD1ED16
:100CD000000A20EEC00A81ED000A401C40B2B84272
:100CE000ECDD641C64B2BC427FF72BAF78B239E014
:100CF00018F90020824217D0002113E010FB0513E1
:100D00005BB212FB051464B206EB840406EB8303AA
:100D1000D4ED000A93ED000AC3ED000A491C84EDEE
:100D2000000A49B2B942E9DD19F90030834217D00F
:100D3000002113E011FB050252B211FB053464B22D
:100D400006EB840406EB8202D4ED000A92ED000A61
:100D5000C2ED000A491C84ED000A49B2B942E9DD3E
:100D6000401E40B20028C3DA01201EE70000000048
:100D7000000000000000F03F70B5044600F0EAF803
:100D80000546601C02D004480078044400F0E2F8F4
:100D9000401BA042FAD370BD7400002070470000D1
:100DA000044910B50A68024202D00860FFF7F6FF56
:100DB00010BD0000143C01402DE9F84FDFF860B190
:100DC00000224FF001084FF0030A4FF00F090BF11A
:100DD000040E00BF0B6808FA02F42340A3426ED150
:100DE0004D68022D01D0122D0ED1D50800EB850CD7
:100DF000DCF820505607F70E09FA07F6B5430E69DE
:100E0000BE402E43CCF82060066855000F790AFAE0
:100E100005FC07F0030726EA0C06AF4037430760DE
:100E20004E68012E05D0022E03D0112E01D0122EB5
:100E30000ED18668CF6826EA0C06AF40374387603C
:100E40004668A6430C79C4F30014944034434460CC
:100E5000C6688C6826EA0C06AC403443C4604C6813
:100E6000E40056D52F4C256845F48045256024685C
:100E700022F0030504F4804400942B4C2E19D6F87C
:100E8000084895072F0F09FA07F5AC43274DA842EC
:100E900001D1002515E0264DA84201D1012510E021
:100EA000244DA84201D102250BE0234DA84201D1D7
:100EB000032506E0214DA84202D1042501E028E0E7
:100EC0000725BD402543C6F80858DBF800405D46BD
:100ED0004E689C43F60300D51C432C60DEF80040AE
:100EE00075464E689C43B60300D51C432C600C4DE0
:100EF00008352C684E689C43F60200D51C432C60D4
:100F0000074D0C352C684E689C43B60200D51C4337
:100F10002C60521C102AFFF45DAFBDE8F88F000072
:100F2000003C0140443802400030014000000240D3
:100F30000004024000080240000C02400010024081
:100F400042694A40426170470AB1816170470904B1
:100F5000FBE7000001488068704700007400002033
:100F600070B5040004D094F83D00002510B106E0EF
:100F7000012070BD84F83C50204600F075F8242014
:100F800084F83D002068016821F00101016000F053
:100F9000F9F933492268B0FBF1F15160314A6368D5
:100FA000934206D94FF4967359434FF47A73B1FBC9
:100FB000F3F12368491C1962616891420BD849001A
:100FC000B0FBF1F2C2F30B02042A01D2042019E0B3
:100FD000B0FBF1F016E0A3689BB301EBC10202EB9A
:100FE0000112B0FBF2F242F48042120530D04BB352
:100FF00001EBC10202EB0111B0FBF1F040F48040C3
:1010000040F400402168C861D4E907010843216821
:101010000860D4E90310084321688860D4E9050119
:1010200008432168C8602068016841F0010101603F
:101030002564202084F83D00256384F83E5000207C
:1010400070BD00E006E001EB4102B0FBF2F2CCE73C
:101050000120D7E701EB4101B0FBF1F0D0E7000040
:1010600040420F00A086010000B500680E4987B01D
:10107000884216D1C02000901220019001200290D9
:10108000032003900420049069460848FFF794FE6B
:101090000748016841F400110160006800F4001085
:1010A000059007B000BD000000540040000402405D
:1010B00040380240024881680278114481607047DC
:1010C000740000200B4810B5016841F40071016004
:1010D000016841F480610160016841F48071016040
:1010E000032000F097F8002000F006F800F024F844
:1010F000002010BD003C024070B50D4D04464FF479
:101100007A712878B1FBF0F00A490968B1FBF0F078
:1011100000F0D3FD48B9102C07D200222146501E02
:1011200000F058F800206C6070BD012070BD000018
:1011300074000020800000201F4808B5016841F4B9
:1011400080410160006800F4804000901A48001F50
:10115000016841F080510160006800F0805000900B
:10116000032000F057F8002211466FF00B0000F04A
:1011700031F8002211466FF00A0000F02BF800222F
:1011800011466FF0090000F025F800221146501FAB
:1011900000F020F800221146101F00F01BF800227A
:1011A0001146901E00F016F80022BDE808401146D6
:1011B000501E00F00FB800004438024000F01F023B
:1011C000012191404009800000F1E020C0F80011A9
:1011D00070470000F0B40E4B1B680C46C3F30223AB
:1011E000C3F10705042D00D90425191D072901D2D3
:1011F000002300E0DB1E012606FA05F1491E21400E
:1012000099409E40761E16403143F0BC01F0FAB979
:101210000CED00E0064900F0070208684FF6FF03F6
:10122000184040EA0220034A10430860704700005B
:101230000CED00E00000FA05704700002DE9F047D2
:101240000E46050065D0DFF81481D8F80000F7B22B
:1012500000F00F00B04207D288F80070D8F8000004
:1012600000F00F00B04254D128683D4C810712D5E0
:10127000400703D5206840F4E0502060287800073C
:1012800003D5206840F4604020602068A96820F001
:10129000F000084320602878C0072DD030496868E6
:1012A0000839012812D0022813D0032811D0096868
:1012B000890700292DDA216821F00301014321600B
:1012C000FFF748FE814641F2883A0EE0096889033B
:1012D000EFE709688901ECE7FFF73CFEA0EB0901A5
:1012E000514502D90320BDE8F0872068696800F005
:1012F0000C00B0EB810FEFD1D8F80010404601F0A0
:101300000F01B14207D90770006800F00F00B0422A
:1013100001D00120E7E72878400705D52068E96873
:1013200020F4E050084320602878000706D52068A4
:10133000296920F4604040EAC100206000F042F8D2
:101340002168084AC1F30311515CC840064908608E
:101350000020FFF7D1FE0020C5E70000003C02405E
:1013600008380240F44600088000002001490120AE
:10137000C864704700004742014800687047000099
:10138000800000200448054900680968044AC1F348
:101390008221515CC840704780000020083802401C
:1013A000044700080448054900680968044AC1F375
:1013B0004231515CC840704780000020083802402C
:1013C00004470008104810B5006810F00C010F48E1
:1013D00018D0042916D0082914D10B4C241F2168D9
:1013E00001F03F02216821680023C1F38811A1FBAD
:1013F0000001FEF7EBFE2168C1F30141491C4900E1
:10140000B0FBF1F010BD0000083802400024F400E9
:10141000054810B50068000605D5FFF70DFF024925
:101420008020891C087010BD0C3802402DE9F84F4F
:10143000050076D02878DFF8F8B2BE4CC00749D056
:10144000DBF800105846C1F38101012908D000687B
:10145000C0F3810002280AD1201D0068400206D591
:101460002068800336D568680028E2D032E06868DA
:10147000B0F5803F10D0B0F5A02F206810D020F438
:1014800080302060206820F4802020606868A0B14F
:10149000FFF760FD06460CE0206840F48030F4E77A
:1014A00040F480202060F7E7FFF754FD801B64289C
:1014B00073D820688003F7D50CE0FFF74BFD064694
:1014C00005E000BFFFF746FD801B6428F0D82068C8
:1014D0008003F7D42878DFF8608280074FF0000996
:1014E0003ED5DBF80010584611F00C0F09D000680B
:1014F000C0F3810002280BD18D48001F0068400214
:1015000006D42068800715D5E868012809D111E0C4
:10151000E868B8B10120C8F80000FFF71BFD0646D7
:1015200005E002E1FFF716FD801B0228C0D8206805
:101530008007F7D52068296920F0F80040EAC1004B
:1015400020600DE0C8F80090FFF704FD064604E0B7
:10155000FFF700FD801B02281FD820688007F7D402
:101560002878000722D5724E744869696C3671B1CB
:1015700001210160FFF7EEFC074604E0FFF7EAFCFB
:10158000C01B022809D830688007F7D50EE0C0F8E4
:101590000090FFF7DFFC074605E083E0FFF7DAFC89
:1015A000C01B02287ED830688007F7D4287840070F
:1015B00068D5DFF87CA100270AF1380ADAF80000C4
:1015C000C0000BD4DAF8001041F08051CAF80010C6
:1015D000DAF80000012700F080500090584E306883
:1015E000C00510D4306840F480703060FFF7B2FC62
:1015F000009005E0FFF7AEFC0099401A022851D890
:101600003068C005F6D54A4EA868683601280FD064
:101610000528306810D020F001003060306820F0DC
:1016200004003060A868B8B1FFF794FC00900FE0A8
:10163000306840F00100F4E740F004003060F7E764
:10164000FFF788FC0099411A41F28830814264D842
:1016500030688007F4D50EE0FFF77CFC009007E0CF
:10166000FFF778FC0099411A41F28830814254D842
:1016700030688007F4D42FB1DAF8001021F08051DF
:10168000CAF80010A869C0B3DBF80010C1F38101EB
:1016900002294AD00228484607D0C8F86000FFF760
:1016A00059FC00E039E005463AE04746C8F86000DA
:1016B000FFF750FC064604E0FFF74CFC801B0228B5
:1016C0002BD820688001F7D4D5E907010843A96A1F
:1016D0001C4A490802EB01416A6A41EA8211084347
:1016E00095F82C1040EA01611148001F01600120AB
:1016F0003866FFF72FFC054605E014E0FFF72AFCEB
:10170000401B022809D820688001F7D50BE000BFF4
:10171000FFF720FC401B022802D90320BDE8F88F08
:1017200020688001F4D40020F8E70120F6E70000EB
:10173000083802400038024000004742800E47420D
:10174000007000400000FFFF70B5040005D00025C8
:10175000A56294F8510010B106E0012070BD84F834
:101760005050204600F030F8022084F851002068E4
:10177000016821F040010160D4E901010843D4E986
:1017800003121143084361690843218B01F400717E
:101790000843E1690843216A0843A16A08432168B4
:1017A0000860A069042101EA1040616A08432168C9
:1017B00048602068C16921F40061C161656501204C
:1017C00084F85100002070BD00B500680D4987B055
:1017D000884215D10C480021026842F48052026010
:1017E000006800F480500590E02000900220CDE9D0
:1017F000010103900520049069460448FFF7DCFAD4
:1018000007B000BD003001404438024000000240F3
:101810002DE9F84F044640680026984617460D46C5
:101820004FF00409B0F5827F01D1A06890B194F81F
:101830005000012819D04FF0010B84F850B0FFF789
:1018400089FB009094F851004FF0000A01280ED057
:1018500002267FE084F8519013460A462046CDF8D0
:10186000008000F031F9BDE8F88F0220FBE7002D81
:101870006FD0002F6DD084F85190C4F854A0A563A8
:10188000A787E787C4F830A0A4F834A0A4F836A04E
:10189000C4F840A0C4F844A0A0684FF40047B84280
:1018A00004D12068016821F480410160206801684A
:1018B000490603D4016841F040010160E068B8B115
:1018C00033E020688168C90706D0007B05F8010B6A
:1018D000E08F401EE0870BE0B8F1000F23D0B8F195
:1018E000FF3F05D0FFF736FB0099411A41451AD258
:1018F000E08F0028E5D11BE020688168C90706D089
:10190000C06825F8020BE08F401EE0870DE0B8F1BB
:10191000000F08D0B8F1FF3F07D0FFF71BFB00997D
:10192000411A414501D3032614E0E08F0028E3D19A
:101930006068B0F5827F0AD1A068B84202D0B0F5E5
:10194000806F04D12068016821F040010160606D62
:1019500000B1012684F851B084F850A0304682E7E7
:101960002DE9F84F044690F8500000269946174696
:101970000D4601280DD04FF0010B84F850B0FFF751
:10198000E9FA804694F85100B246012804D00226B4
:1019900094E00220BDE8F88F002D7BD0002F79D095
:1019A000032084F85100C4F854A02563A786E78675
:1019B000C4F838A0A4F83CA0A4F83EA0C4F844A001
:1019C000C4F840A0A068B0F5004F04D120680168B9
:1019D00041F48041016020680168490603D4016830
:1019E00041F040010160E068B0F5006F606804D02C
:1019F00030B3E08E012823D03EE010B1E08E012804
:101A00001AD135F8021B206805E020688168890733
:101A100006D535F8021BC160E08E401EE0860BE063
:101A2000B9F1000F34D0B9F1FF3F05D0FFF792FABA
:101A3000A0EB080149452BD2E08E0028E5D11EE03D
:101A4000216815F8010B087306E020688168890792
:101A500006D515F8011B0173E08E401EE0860BE0F1
:101A6000B9F1000F14D0B9F1FF3F05D0FFF772FABA
:101A7000A0EB080149450BD2E08E0028E5D14B468A
:101A8000012202212046CDF8008000F0FAFE10B1BC
:101A9000032613E011E042464946204600F0E1FEED
:101AA00018B101262020606508E0A06818B92068F8
:101AB000C16880680090606D00B1012684F851B063
:101AC00084F850A0304665E72DE9F84F044690F8B9
:101AD000500000260A9F9A4693460D464FF0010893
:101AE00001280ED0012084F85000FFF733FA814618
:101AF00094F85100616801280CD0B1F5827F07D1BC
:101B000002E00220BDE8F88FA16809B9042801D0DD
:101B10000226BDE055B1BBF1000F07D0BAF1000FAE
:101B200004D094F85100012802D004E00126AFE06F
:101B3000052084F8510000206065C4F838B0A4F88E
:101B40003EA0A4F83CA02563A4F836A0A4F834A0D5
:101B50002064606420680168490603D4016841F08C
:101B600040010160E068B0F5006F606804D0E8B340
:101B7000E08E01283BD06AE010B1E08E01282ED122
:101B8000216835F8020BC860E08E401EE08626E032
:101B9000B8F1000F0DD0E08E58B120688168890738
:101BA00007D535F8021BC160E08E401EE0864FF07D
:101BB0000008E08F58B120688168C90707D0C06865
:101BC0002BF8020BE08F401EE0874FF00108781CD5
:101BD00005D0FFF7BFF9A0EB0900B84246D2E08E6E
:101BE0000028D5D1E08F0028D2D136E0FFE7216868
:101BF00015F8010B0873E08E401EE08627E000BF59
:101C0000B8F1000F0DD0E08E58B1206881688907C7
:101C100007D515F8011B0173E08E401EE0864FF0DA
:101C20000008E08F58B120688168C90707D0C068F4
:101C30000BF8010BE08F401EE0874FF00108781C85
:101C400005D0FFF787F9A0EB0900B8420ED2E08E6D
:101C50000028D5D1E08F0028D2D13B4601220221B5
:101C60002046CDF8009000F00CFE08B103260FE0EE
:101C70004A463946204600F0F4FD18B101262020DE
:101C8000606505E0A06818B92068C16880680090A8
:101C9000012084F85100002084F85000304631E7DC
:101CA0004FF0E0210428086903D020F00400086107
:101CB000704740F00400FAE7704710B5401EB0F1DD
:101CC000807F01D3012010BD4FF0E02460610F211F
:101CD000601700F097FC0020A06107202061002021
:101CE00010BD10B5FFF7E8FF10BD70477047704793
:101CF00070B50446006801694FF00005C9438907C3
:101D000015D4C168C943890711D4E91E01610120B6
:101D10002076206880698007204602D0FFF7E7FF21
:101D200004E000F098F8204600F096F82576206848
:101D30000169C943490717D4C168C943490713D486
:101D40006FF004010161022020762068806910F4A0
:101D5000407F204602D0FFF7CAFF04E000F07BF886
:101D6000204600F079F8257620680169C943090703
:101D700016D4C168C943090712D46FF00801016184
:101D8000042020762068C0698007204602D0FFF733
:101D9000AEFF04E000F05FF8204600F05DF8257625
:101DA00020680169C943C90617D4C168C943C90677
:101DB00013D46FF010010161082020762068C069FB
:101DC00010F4407F204602D0FFF791FF04E000F0BE
:101DD00042F8204600F040F8257620680169C943A2
:101DE000C90708D1C168C943C90704D1891E016167
:101DF000204600F033F820680169C943090609D478
:101E0000C168C943090605D46FF08001016120460D
:101E1000FFF76BFF20680169C943490609D4C1680F
:101E2000C943490605D46FF040010161204600F026
:101E300031F820680169C94389060BD4C168C943D8
:101E4000890607D46FF0200101612046BDE870408B
:101E5000FFF74CBF70BD70477047000010B50A49CE
:101E60000068096888420ED11F210848FFF768F80A
:101E700001F0F0FFFEF75AFDBDE810404FF480710D
:101E80000348FFF75DB810BDEC02002000000240DF
:101E900000040240704770B5040004D094F8390083
:101EA000002510B106E0012070BD84F838502046AE
:101EB00000F022F8242084F839002068C16821F459
:101EC0000051C160204600F065FF2068016921F4DF
:101ED000904101612068416921F02A014161206837
:101EE000C16841F40051C160E563202084F83900E5
:101EF00084F83A00002070BD00B500680E4987B034
:101F0000884217D10D48016841F010010160006856
:101F1000694600F0100005904FF4C0600090022068
:101F200001900120029003200390072004900448B0
:101F3000FEF742FF07B000BD0010014044380240E8
:101F4000000002402DE9F843044690F839001F468E
:101F500016460D46202850D1A5B19EB194F8380000
:101F600001284AD0012084F838004FF00008C4F856
:101F70003C80212084F83900FEF7ECFFA6848146DE
:101F8000E68426E00120BDE8F883E08C401EE08472
:101F9000A0684B46B0F5805F4FF000024FF0800123
:101FA0002046009703D001F04BF8E8B90DE001F0AE
:101FB00047F8C8B928882168C0F30800486020693C
:101FC00008B16D1C05E0AD1C03E0216815F8010B9C
:101FD0004860E08C0028D8D14B46002240212046A2
:101FE000009701F02DF808B10320CCE7202084F8F9
:101FF000390084F838800020C5E70220C3E7FEE7F7
:102000007CB55E480225012480ED000ACDE900542C
:1020100000F10C022B465A49543000F063FA574A3B
:102020005749743202231831A2F1200000F0FBF965
:10203000524A0223443202F1200101F110000095BE
:1020400000F0D8F94D4A0123121D02F14001A1F11F
:102050002800009500F00AFA484A0123121D111DBC
:10206000081F009400F0C6F944480121001DFEF746
:102070005BFD4249022324310122A1F1080000F056
:1020800065FA3E4ACDE900542C32A2F10801022340
:1020900001F1200000F026FA384A00941432A2F12F
:1020A0001001022301F12800019400F01BFA334AC9
:1020B000CDE90054121D02F10801012301F11000C5
:1020C00000F010FA2D4A0123121D1146081F00943A
:1020D00000F0EEF9294A00942432A2F120010223F3
:1020E00001F11000019400F0FDF92449244A243143
:1020F0000223083AA1F11800009400F07BF91F4A6E
:1021000002237432A2F15801A1F10800CDE9004583
:1021100000F0E8F9194A022374321146A1F1400097
:10212000009500F0C5F91549154A44310095022380
:10213000083201F13000019500F0D4F91049002077
:10214000B1F1080101EB8002401C92ED000AC0B21F
:1021500082ED020A0228F5D3094A002012F1080292
:1021600002EB8003401C93ED000AC0B283ED040A29
:102170000428F5D391ED000A7CBD00005402002034
:1021800074050020114A1249002000BF02EB8003B1
:1021900093ED000A01EB8003401CC0B283ED020AFC
:1021A0000228F3D309490A4A0020503112F11002E3
:1021B00001EB800393ED000A02EB8003401CC0B2E8
:1021C00083ED040A0428F3D370470000780200204E
:1021D0006C05002070B5284886B00025016841F0E4
:1021E00080010160016801F080010591016841F002
:1021F00001010160016801F001010591016841F0F0
:10220000020101600068012400F0020005901F2017
:102210008DE83100694619480395FEF7CDFD184851
:10222000184ECDE90040694630460294FEF7C4FDE1
:1022300046F2A0108DE8310069463046FEF7BCFD3D
:10224000002280213046FEF77FFE00222102304628
:10225000FEF77AFE012291033046FEF775FE012259
:1022600020213046FEF770FE002261033046FEF763
:102270006BFE06B070BD0000303802400000024026
:1022800000002110000402400E4810B50C49016006
:102290000D49416000214FF480428160C0E9031282
:1022A00041618161C1610162FEF75AFE002805D0DB
:1022B000BDE81040E52105A000F0F5BE10BD00000E
:1022C0000054004008040020A0860100706C617476
:1022D000666F726D5C706F72742E6300114810B57A
:1022E0000F4901604FF48271416000218160C1603B
:1022F0004FF400720161C0E905122022C0E90721F4
:10230000416281620721C162FFF71EFA002805D0F1
:10231000BDE81040FB2104A000F0C5BE10BD0000C8
:10232000003001405C040020706C6174666F726D57
:102330005C706F72742E63000F4810B50D49016018
:102340004FF48271416000218160C1604FF40072DE
:102350000161C0E905121022C0E9072141628162D2
:102360000A21C162FFF7F0F9BDE810404FF4FA709E
:10237000FEF702BD003001405C040020144810B597
:10238000124901604FF4E1314160002181600C226B
:10239000C160C0E904128161C161FFF77CFD20B119
:1023A0004FF490710BA000F07EFE0E4800F07CFE12
:1023B0000D4800F079FE0D4800F076FE0C4800F064
:1023C00073FEBDE81040074800F06EBE00100140EB
:1023D000B4040020706C6174666F726D5C706F7213
:1023E000742E6300B44F000884500008FC4F0008AE
:1023F0004050000830B50024039D6B4310E000BF3F
:1024000000EB840595ED000A01EB8405D5ED000A8B
:1024100002EB8405641C30EE200AE4B285ED000A6C
:10242000A342EDD830BD70B58AB0154600220292A5
:1024300003920492059206920792089209921C4612
:1024400006460093019302AA00F04CF823461A4670
:1024500006A9304600F07AF8009423462A4606A9D9
:1024600002A8019400F03EF80AB070BDF0B586B045
:10247000074600200B9C009416460290039004909F
:1024800005901D4602AA0194384600F02BF8234619
:102490002A4604A9384600F059F8CDE900452B46F4
:1024A000324604A902A800F01DF806B0F0BD0000F5
:1024B00030B50024039D6B4310E000BF00EB8405A2
:1024C00095ED000A01EB8405D5ED000A02EB8405C9
:1024D000641C30EE600AE4B285ED000AA342EDD838
:1024E00030BD00002DE9F0439146DDE907C6002527
:1024F00026E0002420E005FB06479FED130A09EBC8
:102500008707002287ED000A12E000BF05FB0C28B8
:1025100000EB8808D8ED000A02FB064801EB8808AA
:10252000521C98ED001AD2B200EE810A87ED000A23
:102530006245EBD3641CE4B2B442DCD36D1CEDB253
:102540009D42D6D3BDE8F0830000000070B50025A1
:1025500014E000240EE000BF14FB035600EB8606D7
:1025600096ED000A15FB024601EB8606641C86ED1B
:10257000000AE4B29442EFD36D1CEDB29D42E8D361
:1025800070BDFEE7FEF744BF1B4800B5026887B088
:10259000002142F004020260026802F00402059287
:1025A000026842F080020260026802F08002059236
:1025B000026842F001020260026802F00102059224
:1025C000026842F002020260006800F0020005901A
:1025D000012000900948CDE9010169460848FEF74D
:1025E000EBFB002204210620FEF7F4FD0620FEF797
:1025F000E5FD07B0002000BD30380240000011109A
:10260000000402400907090E002806DA00F00F0056
:1026100000F1E02080F8141D704700F1E02080F800
:10262000001470470907090E002806DA00F00F00B1
:1026300000F1E02080F8141D704700F1E02080F8E0
:102640000014704770B5002404F1B000C0B200213E
:1026500000F0C4F80021084600F0C0F80021102066
:1026600000F0BCF800250121002000F0B7F86D1C37
:10267000EDB2872DF7D3641CE4B2082CE4D370BD0F
:1026800030B5224887B00021026842F002020260A1
:1026900000684FF43C4400F00200009405900120D3
:1026A000CDE901011A4D039169462846FEF784FBE6
:1026B000012221462846FEF747FC0122D40221468A
:1026C0002846FEF741FC642001F03CFA0022214636
:1026D0002846FEF739FCC82001F034FA01222146D1
:1026E0002846FEF731FC0B4D00240021285D00F048
:1026F00075F8641CE4B20C2CF7D3FFF7A3FF00219C
:10270000084600F009F807B030BD0000303802403C
:10271000000402404402002010B50446B031C8B2A3
:10272000002100F05BF8102040EA1410002100F0B6
:1027300055F804F00F00BDE8104040F00100002102
:1027400000F04CB82DE9F041203A00240D46D7B2F4
:102750007F2802D900208D1CEDB2801CC0B28046BB
:102760002946FFF7D9FF0F4E04EB07100121305C1B
:1027700000F034F8641CE4B2082CF5D36D1CE9B207
:102780004046FFF7C9FF002404EB07103044012145
:10279000007A00F023F8641CE4B2082CF4D3BDE8FE
:1027A000F08100000C4700082DE9F04117460E4665
:1027B000044600250CE031462046FFF7C3FF0834ED
:1027C000E4B2782C02D90024B61CF6B26D1CEDB22E
:1027D0007A5D002AEFD1BDE8F08100002DE9F047D5
:1027E0001E4D06464FF4806A09B1012200E0002226
:1027F00051462846FEF7A8FB4FF480580022414678
:102800002846FEF7A1FB00244FF400494FF400577F
:10281000002239462846FEF797FB300601D50122F3
:1028200000E0002249462846FEF78EFB0122394689
:102830002846FEF789FB7006641C060EE4B2082CDD
:10284000E6D3012241462846FEF77EFB5146284644
:10285000BDE8F0470122FEF777BB0000000402400C
:10286000704738B50B46009204460022802100F0E4
:1028700008F8002804D0606D40F020006065032057
:1028800038BD2DE9F0411D4617460E460446DDF8D9
:10289000188035E0681C33D02DB1FEF75BFBA0EB50
:1028A0000800A8422CD32068416821F0E001416073
:1028B0006068B0F5827F0BD1A068B0F5004F02D000
:1028C000B0F5806F04D12068016821F040010160FB
:1028D000A06AB0F5005F0AD1206801684DF6FF726A
:1028E000114001602068016841F40051016001203D
:1028F00084F85100002084F850000320BDE8F081E6
:102900002068806836EA000004D00020B842C1D1B7
:102910000020F3E70120F9E7704700002DE9F04FB0
:102920002DED0A8B95B000200146A24E0290039037
:10293000049005903154401C7F28FBD3402001F0C7
:1029400057FA00210F2001F0ADFBDFF86CB2400414
:102950007ED50021102001F0A5FBC0F309019748A6
:102960007F29018031D80022924801F0CEFB944C9F
:10297000944D2660F0796871307AA871B078A870AB
:10298000707A442821D0DFF840A246281ED0502873
:102990001BD101F09DFDC4E9020141206872BAF823
:1029A0000000544680B20022294601F03EFD2088F6
:1029B000002180B201F04AFD002001F099FC0021C5
:1029C0000F2001F06FFB0006F9D5D6E001F093FD72
:1029D000C4E9040101F07CFDC4E90601206809A9ED
:1029E0000B3001F059FD20680AA90F3001F054FDA9
:1029F000206806A9133001F04FFD0A980999814615
:102A0000D4F80880A7692669401AFDF798FD41ECC3
:102A1000180BB81BFDF793FD41EC190B0699A1EBC0
:102A20000900FDF78CFD41EC1A0BA6EB0800FDF741
:102A300086FD41EC1B0B53EC192B51EC180BFDF7E9
:102A4000F6FB53EC1A2BFDF7F2FB53EC1B2B00E0CB
:102A5000A6E0FDF7ECFB41EC1C0B53EC1B2B51ECFF
:102A60001A0BFDF78BFC41EC1A0B53EC192B51ECB4
:102A7000180BFDF783FC53EC1A2BFDF779FC53EC94
:102A80001C2BFDF7EDFCFDF79AFDFDF765FD9FEDB5
:102A90004F1B53EC112BFDF771FC41EC100B84ED37
:102AA000080B9FED4C1B53EC112BFDF767FC41EC21
:102AB000100B84ED0A0BFDF7D3FD00EE100A47481A
:102AC0004178007801F0F6F994ED0A1B51EC100BF7
:102AD00053EC112BFDF74FFC41EC100B84ED0A0B6E
:102AE000FDF7BEFD00EE100AFFF78AFA10EE100A9D
:102AF000FDF78AFD41EC100B9FED391B84ED0A0BAD
:102B000053EC112BFDF73AFCFDF73AFD642190FBE5
:102B1000F1F26972AA7290FBF1F201FB1200E87205
:102B2000BAF80000564680B20022264901F07DFC2A
:102B30003088002180B201F089FC002001F0D8FB30
:102B400000210F2001F0AEFA0006F9D594ED0A0B32
:102B500001218DED000B6B79AA7923A000F0A4FA76
:102B600094ED0A0B29A153EC102B02A800F0ACFA4B
:102B700002AA06210020FFF717FE5A4600210F2067
:102B800001F025FC082001F033F9002001F07EFB64
:102B9000002001F0CFFA15B0BDEC0A8BBDE8F08F34
:102BA0005A4600210F2001F012FC082001F020F904
:102BB000EEE700008603002000D0272470000020EC
:102BC000300000202803002060000020FA48CE3B9F
:102BD0001835B13D0000001319DDB141640000203B
:102BE0000000000000005940307825303458203C67
:102BF0002D2D3E2030782530325825303258203A5D
:102C0000252E30326620636D0A00000020204469C2
:102C1000733A20252E303266206D000070B50E48C4
:102C20004FF47A710068B0FBF1F0401EB0F1807F84
:102C300011D24FF0E024606165170F212846FFF79D
:102C4000F1FC0020A0610720206105212846FFF744
:102C5000E9FC002070BDFEE78000002010B5FEF703
:102C600029FAFFF73EF802480168491C016010BDCF
:102C70000000002030B5294893B00025016841F0DC
:102C800080510160006800F0805011902448016874
:102C900021F4404141F4004101600068022400F445
:102CA0004040119001200090000401908001CDE986
:102CB000064010200890A820CDE9090404200B90BC
:102CC0006846FEF7B3FB18B1BC2116A000F0EBF983
:102CD0000CA90F2081E831004FF48050CDE90F0599
:102CE00002210CA8FEF7AAFA18B1C8210DA000F025
:102CF000DAF9FEF73BFBFEF73FFB4FF47A71B0FBCE
:102D0000F1F0FEF7DAFF0420FEF7CAFF00221146B9
:102D1000501EFEF75FFA13B030BD0000403802408D
:102D200000700040706C6174666F726D5C706F72E1
:102D3000742E63001048016841F4700101600F486F
:102D4000016841F0010101600C4A00210832116064
:102D500002680B4B1A400260031D0A4A1A6002689F
:102D600022F48022026005480C30016002495806B6
:102D7000803908607047000088ED00E000380240AC
:102D8000FFFFF6FE103000240148FEF7B1BF00003F
:102D9000EC0200202DE9F04104460068016921F4AD
:102DA0004052E168114301612168C86849F20C6230
:102DB00090432369A268E5691A4363692B431A4368
:102DC0000243CA602168486920F44072A069104338
:102DD0004861E1696425B1F5004F9748974A216839
:102DE0004FF032083FD0914201D081427CD1FEF7B2
:102DF000D9FA00EBC00101EB001061688900B0FB5B
:102E0000F1F6FEF7CFFA00EBC00101EB00106168AC
:102E10008900B0FBF1F0B0FBF5F06FF0180148430A
:102E200006EB800108EB0110B0FBF5F000F0F006B6
:102E3000FEF7B8FA00EBC00101EB001061688900F1
:102E4000B0FBF1F0B0FBF5F006EB0016FEF7AAFAC6
:102E500000EBC00101EB001061688900B0FBF1F7E5
:102E6000FEF7A0FAD2E0914201D081423DD1FEF7B7
:102E700099FA00EBC00101EB001061684900B0FB5A
:102E8000F1F0B0FBF5F00601FEF78CFA00EBC001A3
:102E900001EB001061684900B0FBF1F7FEF782FA20
:102EA00000EBC00101EB001061684900B0FBF1F0DC
:102EB000B0FBF5F06FF01801484307EB800108EB19
:102EC000C100B0FBF5F000F0F80006EB4006FEF79D
:102ED00069FA00EBC00101EB001061684900B0FB2A
:102EE000F1F7FEF75FFA3CE055E0FEF74BFA00EB36
:102EF000C00101EB001061684900B0FBF1F0B0FBCC
:102F0000F5F00601FEF73EFA00EBC00101EB001000
:102F100061684900B0FBF1F7FEF734FA00EBC0013D
:102F200001EB001061684900B0FBF1F0B0FBF5F077
:102F30006FF01801484307EB800108EBC100B0FBBC
:102F4000F5F000F0F80006EB4006FEF71BFA00EB88
:102F5000C00101EB001061684900B0FBF1F7FEF71A
:102F600011FA00EBC00101EB001061684900B0FBF1
:102F7000F1F0B0FBF5F06FF01801484307EB80016A
:102F800008EBC100B0FBF5F000F007002168304409
:102F90008860BDE8F081FEF7F5F900EBC00101EBB8
:102FA000001061688900B0FBF1F6FEF7EBF900EB69
:102FB000C00101EB001061688900B0FBF1F0B0FBCB
:102FC000F5F06FF01801484306EB800108EB0110A3
:102FD000B0FBF5F000F0F006FEF7D4F900EBC0010D
:102FE00001EB001061688900B0FBF1F0B0FBF5F077
:102FF00006EB0016FEF7C6F900EBC00101EB00106E
:1030000061688900B0FBF1F7FEF7BCF900EBC00185
:1030100001EB001061688900B0FBF1F0B0FBF5F046
:103020006FF01801484307EB800108EB0110B0FB7B
:10303000F5F000F00F00A9E7001401400010014076
:103040002DE9F041984617460E460446069D1DE0C0
:10305000681C1BD02DB1FDF77DFFA0EB0800A84236
:1030600014D92068C16821F4D071C1602068416919
:1030700021F001014161202084F8390084F83A00F0
:10308000002084F838000320BDE8F0812068006843
:1030900036EA000004D00020B842D9D00020F3E77F
:1030A0000120F9E7FEE7FEE70FB4054B10B503A9D1
:1030B000044A029800F0A4F910BC5DF814FB00006B
:1030C000B5440008D80200200FB4084B10B504A97D
:1030D00002AA039800F094F9044602A9002000F027
:1030E00026FD204610BC5DF814FB00002F3B0008B5
:1030F00002E008C8121F08C1002AFAD170477047C1
:10310000002001E001C1121F002AFBD1704738B531
:1031100004466D208DF800006B46012240F6060142
:103120002E2001F063F941F6060114B140F2076266
:1031300001E041F207622E2001F03CF938BD38B5BC
:1031400004466B4602220021362000F0C1FF0E2CFF
:103150002CD2DFE804F00F07152B2B2B2B1D392B5E
:103160002B44494E00208DF800009DF8010000F02E
:10317000FE0019E09DF8000000F0FC00401C04E097
:103180009DF8000000F0FC00801C8DF800000DE0B0
:103190009DF8000000F0B30040F048008DF80000FA
:1031A0009DF8010040F080008DF801006B4601227F
:1031B0000021362001F01AF90122114636200DF1C6
:1031C000010301F013F938BD9DF8000000F0B300D1
:1031D0008DF800009DF8010000F07F00E4E79DF805
:1031E000010040F00200DFE79DF8010000F0FD0063
:1031F000DAE79DF8000000F0CF0040F02000C4E7BF
:1032000008B503208DF8010001208DF800006B4601
:1032100002220021362001F0E9F84FF40042062195
:103220002D2001F0C7F8012000F08CFC0120FFF7F1
:1032300086FF08BD08B5010A8DF801108DF8000061
:103240006B46022204212D2001F0D0F803208DF8D6
:1032500000006B46012206212D2001F0C7F8002056
:103260008DF800006B46012206212D2001F0BEF8EA
:103270000A212D2000F016FF08BD00002DE9FF5F98
:1032800082B00021DDE90430020DDDF840B00343D7
:1032900018D044F61050A2F2FF3242431514119890
:1032A00001281FD0A5EB0B00401C5FEA000A4FF07D
:1032B00000064E4FDFF83891B046504615D5CAF19A
:1032C000000413E0119801244AA3012801D16FEAF8
:1032D0000B010298119AC0E90031C0E9024206B020
:1032E000BDE8F09FCBF10000DFE704460021404A33
:1032F000491842EB0450CDE9001012E0E00707D076
:1033000032463B4640464946FDF738F880468946F6
:1033100032463B4610461946FDF730F806460F4642
:103320006410002CEAD1DDE90401DDE90023BAF1E3
:10333000000F06DAFDF722F842464B46FDF71EF86D
:1033400005E0FDF78DF842464B46FDF789F8044647
:103350000E460022284BFDF793FA03D84FF0FF30BA
:10336000014607E00022254B20463146FCF75FFF6F
:10337000FDF76DFA102409E0002C0ADB0A22002375
:10338000FCF724FF039B30321A55641E50EA0102F9
:10339000F2D1641C039AC4F111031444119A012A56
:1033A00003D0012208430DD10AE0084304D00020D5
:1033B0004FF0110B119072E7A3EB0B056D1E0DE0A2
:1033C0005B4504DD4FF0000205F1010504E003DA7E
:1033D0004FF00002A5F10105002AECD002981199E6
:1033E000C0E90231C0E9004579E70000000014405F
:1033F0000000F03F300000000000F0430000E03F1C
:103400002DE9FF4F95B09B468946064600250FE201
:10341000252877D100242746F84A0121059400E0A9
:10342000044316F8013F203B01FA03F01042F7D1A4
:1034300030782A2811D06FF02F033078A0F13002B5
:10344000092A16D8059A44F0020402EB820203EB23
:1034500042021044761C0590EFE759F8042B0592C0
:10346000002A03DA504244F40054059044F0020468
:10347000761C30782E2816D116F8010F44F004047B
:103480002A280DD06FF02F023078A0F13003092BDD
:1034900009D807EB870302EB4303C718761CF3E751
:1034A00059F8047B761C30786C280FD006DC4C2849
:1034B00017D068280DD06A2814D104E0742810D0E1
:1034C0007A280FD10DE044F400140AE044F480148B
:1034D00001E044F440147278824202D104F5801471
:1034E000761C761C307866280BD013DC582877D0F1
:1034F00009DC002875D04528F6D04628F4D04728A6
:103500001AD19DE118E0632835D0642879D0652868
:1035100012D195E1702873D008DC6728F1D06928B2
:103520006FD06E280DD06F2806D1B5E073282CD04F
:10353000752875D0782874D05A46179990476D1C15
:1035400075E1C4F30250022809D003280DD0D9F840
:10355000001004280DD00D6009F1040967E1D9F8C5
:103560000010EA17C1E90052F6E7D9F800100D8003
:10357000F2E70D70F0E719F8041B8DF80010002039
:103580008DF80100EA46012003E059F804AB4FF042
:10359000FF3061074FF0000102D40DE008F1010196
:1035A0008846B9420FDA8045F8DB1AF8081000297E
:1035B000F4D108E008F1010188468142FADB1AF8EB
:1035C00008100029F6D105985B46A0EB08072146B4
:1035D0003846179A00F094FA284400EB080507E0F3
:1035E0004DE029E10DE01AF8010B5A461799904772
:1035F000B8F10108F7D25B4621463846179A13E125
:1036000042E00A220092C4F302524FF0000A022A5A
:1036100008D059F804CB032A4FEAEC710AD00DE028
:1036200029E02AE009F1070121F00702F2E802C1CE
:10363000914609E00FFA8CFC4FEAEC71042A03D1A1
:103640004FFA8CFC4FEAEC71002907DA0A46002198
:10365000DCF1000C61EB02012D2202E0220504D511
:103660002B228DF80420012203E0E20701D0202262
:10367000F7E7904659E00A2102E010220DE0102100
:103680004FF0000A00910BE010224FF0000A44F0C6
:1036900004040827009203E008224FF0000A009279
:1036A000C4F30252022A05D059F804CB0021032AA0
:1036B00008D009E009F1070121F00702F2E802C190
:1036C000914605E01FFA8CFC042A01D10CF0FF0C96
:1036D0004FF00008220728D5702806D0009B83F001
:1036E000100353EA0A0305D00EE040228DF80420AF
:1036F000012208E05CEA010206D030228DF80420A5
:103700008DF8050002229046009B83F0080353EADF
:103710000A030AD15CEA010201D1620705D5302211
:103720008DF804204FF001087F1E582804D034A0E3
:1037300003900EA802900DE036A0F9E753466046CC
:10374000009AFCF743FD84460398825C0298401E71
:10375000029002705CEA0100F0D1029806A9081AF2
:1037600000F1200A600702D524F4803400E001272C
:10377000574502DDA7EB0A0000E0002000EB0A013C
:10378000009005984144401A0590E00306D45B463A
:103790002146179A059800F0B3F90544002706E082
:1037A00001A85A46C05D179990476D1C7F1C47457C
:1037B000F6DBE0030CD55B462146179A059800F02E
:1037C0009FF9054404E030205A46179990476D1C34
:1037D0000099481E00900029F5DC08E00298029943
:1037E0005A460078491C0291179990476D1CBAF10E
:1037F0000001AAF1010AF1DC65E1000009280100DD
:103800003031323334353637383961626364656656
:103810000000000030313233343536373839414218
:10382000434445460000000000F058F90544761C6A
:10383000307800287FF4ECAD19B02846BDE8F08F51
:10384000620700D4062709F1070222F0070CFCE802
:103850000223E14603F000485FEA080C02D00FF2B1
:10386000702C0DE05FEA045C02D50FF2682C07E0D3
:103870005FEAC47C02D00FF2602C01E0AFF2700C62
:103880004FF0FF3823F00043CDF850C065280CD02E
:1038900006DC452809D046281DD047283DD13DE00B
:1038A000662818D067287ED138E00021112F01DB6F
:1038B000112000E0781CCDE9000106A90EA8FFF751
:1038C000DDFCDDE90F010E9A03910021009207F162
:1038D000010A04914DE04FF000400097CDE901103E
:1038E00006A90EA8FFF7CAFCDDE90F0203920E9BA2
:1038F00011990022DDF80CA00093049211B9791CF3
:1039000000EB010AB7EB0A0004D4C0F1FF3007F165
:10391000010A0490AAEB0700019044E0012F00DAAD
:1039200001270021112F01DD112000E03846CDE9EB
:10393000000106A90EA8FFF7A1FCDDE90F010E9A10
:103940000391002104910092BA4621070CD40399F7
:10395000514500DA8A46BAF1010F05DD009AAAF155
:103960000101515C302908D0B84202DA10F1040F8D
:1039700006DA0121CDE9011015E0AAF10101E9E71C
:10398000002805DC049901440491AAEB000102E03F
:10399000411C514500DD8A460499401A401C0190A3
:1039A0004FF000400290200704D40198504501DBFD
:1039B000CDF8048000208DF84F0002980DF14F07DC
:1039C000B0F1004F25D02B200E9002984FF0020846
:1039D00000280CDA404202902D200E9007E00A21C8
:1039E0000298FCF759FE3031029007F8011DB8F13A
:1039F0000001A8F10108F2DC02980028EFD1791E3D
:103A00000E980870307800F0200040F0450007F86C
:103A1000020D12A8C01B00F107081498007800B12D
:103A2000012000EB0A01019801EBE0710598414487
:103A3000401A401E0590E00306D45B462146179AC3
:103A4000059800F05DF805441498007818B15A46BE
:103A5000179990476D1CE00324D55B462146179AC1
:103A6000059800F04DF805441CE00498002807DB99
:103A7000DDE90301884203DD0098405C179901E00D
:103A8000179930205A469047049805F10105401CCB
:103A900004900198401E019004D12E205A46179997
:103AA00090476D1CBAF10001AAF1010ADDDC05E0C6
:103AB00017F8010B5A46179990476D1CB8F1000191
:103AC000A8F10108F4DC5B462146179A0598ABE69D
:103AD0002D0000002B000000200000002DE9F04127
:103AE000044600251E461746880404D405E03946DE
:103AF0002020B0476D1C641EF9D52846BDE8F08132
:103B00002DE9F041044600251E469046C80301D524
:103B1000302700E02027880404D505E041463846D8
:103B2000B0476D1C641EF9D52846BDE8F0810A68CF
:103B3000531C0B601070704701490860704700000B
:103B40005002002010B5044600F00AFD04EB00040A
:103B500000F006FD001B0028FADD10BD002804D08F
:103B60004FF0E0214020C1F80001704710B5062059
:103B7000FCF7D8FF002804D04FF0E0224021C2F823
:103B8000801110BDC22101704FF01F31416000F063
:103B90000DB900002DE9F84F0446057840797849C1
:103BA0004FF00009C84631F8107061787548491E19
:103BB000CEB20163042D75D0072D73D000218A4643
:103BC000217801736F49E2798969002A6CD021F468
:103BD00080018161217A4173217A4FF440338269F7
:103BE00003EA01410A43834682610021042000F078
:103BF000EEFB3A4642F604012E2000F0DBFB304695
:103C0000FFF785FA604F61490522785D00EB80007F
:103C1000431807212B2000F0E9FB5D49012201EB4D
:103C20000A030B21282000F0E1FB785D594951F887
:103C300020200C21282000F0CAFBE079564901EB36
:103C40008000A17930F811200221272000F0B2FB7A
:103C50005248042130F81620272000F0ABFBE07911
:103C600038B3A07804282AD028208DF8000020221C
:103C70000621272000F09EFB6B46012226212720EB
:103C800000F0B4FB4648E17800EB061050F8212024
:103C90000821272000F09BFBB4F80900A0B117E031
:103CA00000E001E001218AE741F48001FF08816121
:103CB00090E764220621272000F07CFBE2E7102039
:103CC0008DF800000246D3E741F24100A4F8090054
:103CD000B4F809202021272000F06CFB314F0C2183
:103CE00023203A6800F073FB07EB4600042182882A
:103CF000232000F05FFBA07958B1E0792A49012226
:103D000043180021212000F071FB4FF003094FF010
:103D1000010805F00F00290740EA116061784FF4AF
:103D2000402202EA81410843920002EA0951084315
:103D30004FF4003202EA4841084321794FF0F8621B
:103D400002EA81510843617940EAC16200211F20E3
:103D500000F03DFBA07861784FF400430843020473
:103D6000CBF81020E179082043EA41310A430021D1
:103D7000CBF8102000F02BFB0020BDE8F88F0000EE
:103D8000784D000830050020FC4C00081C4D000850
:103D90003A4D0008044D0008484D0008544D0008F5
:103DA000584D00083C4D0008444D000810B504462D
:103DB000034601220B212A2000F018FB6268002133
:103DC000BDE810401E2000F002BB10B500212620E7
:103DD00000F068F940F4A8220021262000F0F7FA4C
:103DE00000222621BDE81040362000F0E3BA000092
:103DF00010B504460021042000F054F90A49084097
:103E00003CB120F4FF7004F4FF71014341F0010262
:103E100001E020F00102054800218261BDE8104068
:103E2000042000F0D4BA0000FFFF47F03005002066
:103E300010B504460421362000F034F914B140F4E2
:103E4000006201E020F400620421BDE81040362049
:103E500000F0BDBA38B540208DF8000000210E20DA
:103E600000F020F90446FFF781FE054600221146C6
:103E70000E2000F0ACFA6B46012200210D2000F06C
:103E8000B5FA0A4A00210F2000F0A1FA00F078FAF2
:103E9000224600210E2000F09AFA2846FFF75EFE27
:103EA0000349002081F82C0038BD0000F8FF2724CA
:103EB0003005002070B505460E46002410EE100AAD
:103EC000FCF7A2FB9FED311B53EC112BFCF756FACC
:103ED000FCF756FBFF2800DDFF202E49012EA1F143
:103EE00008020CD0042D2BD0072D29D0515D01EBF9
:103EF000810202EBC101284A02EB410130E0042DAE
:103F00000AD0072D08D0515D01EB810202EB41116F
:103F1000204A083211440EE0495D1F4A01EB0111AD
:103F2000883A02EB810100E0641C0A5D8242FBDBFF
:103F30001C3C19E0641C0A5D8242FBDB173C13E069
:103F4000495D01EB8102C2EB8111134A68321144D1
:103F500000E0641C0A5D8242FBDB1E3C04E0641C42
:103F60000A5D8242FBDB113C00EE104AB8EEC00A4B
:103F700010EE100AFCF748FB9FED081B53EC112BC9
:103F8000FCF7FCF941EC100B70BD000000000000D4
:103F900000001040B24D0008D64E00087B14AE471A
:103FA000E17A843F7CB506460420334C8DF800004E
:103FB00000206075206384F8250084F82C00A0831D
:103FC0006063A06300F080F82C492060884201D033
:103FD00001207CBD0020FFF7B2F86B4601220021D2
:103FE000242000F003FA1E20FFF724F985B2280AE6
:103FF000A0730420FFF71EF910F0FF0F0CD0022071
:104000008DF8040001AB012212212D2000F0EEF901
:10401000A08B40F48050A0830620FFF70BF960606E
:104020000720FFF707F9A06015F01F0121754FF079
:10403000100000D12075207500F016FAF00706D0A8
:10404000FFF7DEF8A08B40F40060A08309E00521B3
:10405000362000F015F820F400720521362000F01B
:10406000A9F90120FFF76BF80021042000F01AF8ED
:10407000A06100207CBD0000300500203001CADEB8
:1040800038B5012489B280B26B46022200F020F8D4
:1040900030B99DF800009DF8011000EB012084B2BA
:1040A000204638BD38B5012489B280B26B4604225F
:1040B00000F00EF830B903216846425C491E02EB5D
:1040C0000424FAD5204638BD00210846FFF7EABF90
:1040D00008B551B140F040008DF80000C8B27F290A
:1040E00007D88DF8010002200BE08DF800000120B8
:1040F00007E040F080008DF80100C8098DF802004B
:104100000320694600F032FA08BD30B414460A466E
:104110002146034630BC1120FFF7DABF03460522D3
:1041200000211520FFF7D4BF0346052200211720E8
:10413000FFF7CEBF38B5054600208DF8000000F02F
:104140001FF94FF4807422460DB14FF440720021E4
:104150000D2000F02FF995B16B46012203210F20AD
:10416000FFF7B6FF9DF80000000708D5FFF772FEC5
:10417000224600210D2000F01DF9012038BD00204D
:1041800038BD02460021032000F014B970B50E4678
:104190000446FFF7EBFC054600210E20FFF782FFE7
:1041A0000EB1204300E0A043024600210E2000F0A3
:1041B0000EF92846BDE87040FFF7D0BC38B504467C
:1041C000C0076B464FF002024FF000014FF026008F
:1041D0002DD0FFF77DFF9DF80100012220F03C006B
:1041E00040F014008DF80100114626200DF1010366
:1041F00000F0FCF86B46012202213620FFF768FF31
:104200009DF800006B4640F084008DF8000001220C
:104210000221362000F0EAF810208DF8000001207D
:104220008DF80100022228216B4636200BE0FFF7B3
:104230004FFF9DF801006B4620F014008DF801003F
:1042400002220021262000F0D1F8A00711D50F206E
:104250008DF800006B4601222A21362000F0C6F8B6
:1042600000208DF800006B4601222A21362000F044
:10427000BDF838BD02460221032000F09BB802467B
:1042800041F604012E2000F095B8000038B505462F
:104290006B46012203210420FFF71AFF104C75B171
:1042A0002A4600210C2000F085F89DF8000040F01F
:1042B00010008DF80000A06940F0805008E09DF8E3
:1042C000000020F010008DF80000A06920F0805060
:1042D000A0616B4601220321042000F087F838BD5D
:1042E0003005002002460021182000F063B80000CD
:1042F000F8B500240546214F26468DF8004080077A
:104300000BD580208DF800006B46012200210D2086
:1043100000F06CF8012087F82C00E8079DF80000F9
:1043200020D040F006008DF800006B4601220021ED
:104330000D2000F05BF803210F20FFF7A1FE10F421
:10434000816F19D040208DF800006B4601220021BA
:104350000D2000F04BF80020FFF76AFD87F82C6075
:10436000012409E040F002008DF800006B460122B4
:1043700000210D2000F03AF82046F8BD300500205D
:104380001CB56B46012203210F20FFF7A1FE9DF80B
:10439000000000F0800100F04000B1EB400F08D0B9
:1043A00001208DF80400024601AB03210D2000F02E
:1043B0001DF81CBD08B589B28DF80020120A8DF8D1
:1043C000012080B26B46022200F010F808BD38B51B
:1043D00000236C46E254120A5B1C042BFADB89B200
:1043E00080B22346042200F001F838BD08B551B16F
:1043F00040F0C0008DF80000C8B27F2909D88DF8C0
:10440000010002200DE040F080008DF80000012046
:1044100007E040F080008DF80100C8098DF8020027
:104420000320694600F03AF908BD10B5144602446D
:10443000B2F5806F01D9012010BD0B46821E2146C6
:104440000920FFF7D3FF002010BD0000054A10B57A
:10445000126940EA8150024300210820FFF7B7FFAC
:10446000002010BD3005002038B504466B460122FF
:104470000E212B20FFF72CFE9DF8000004F01F01F9
:1044800020F01F0001438DF800106B4601220E2121
:104490002B20FFF7ABFF38BD10B500220A60835C0C
:1044A000D400A3400C68521C23440B60042AF6DBA2
:1044B00010BD000038B501248DF800002246A31E6F
:1044C00069460248FDF73EFD204638BDB404002091
:1044D0007CB5002425466846FFF720FE0420694687
:1044E0002D0245EA146522020C5C1443401EF7D5E8
:1044F000204629467CBD7CB5002425466846FFF74A
:1045000013FE042069462D0245EA146522020C5C64
:104510001443401EF7D5204629467CBD10B500F057
:1045200008F8FCF7BFFAFCF74FFA00F073F8002028
:1045300010BD10B5FCF7C6FDFEF79CFBFEF76EFB49
:10454000FDF748FEFDF71AFFFDF7C8FEFDF79CFEDC
:10455000FEF796F8FEF776F8BDE81040FEF714B8BF
:104560000148006870470000000000202DE9F04776
:104570009A46154689468046FFF7F8FA0F4E0446DC
:10458000002210213046FCF7DFFC4FF47A773B46DF
:10459000424649460A48FDF7E3F9AAB23B4651466E
:1045A0000748FDF735F9012210213046FCF7CCFC15
:1045B0002046FFF7D3FA0020BDE8F0870000024054
:1045C0005C04002030B585B001204FF48264CDE951
:1045D0000040029000200E4D039069462846FCF7EB
:1045E000EBFB012221462846FCF7AEFC1420FFF726
:1045F000A9FA002221462846FCF7A6FC1420FFF762
:10460000A1FA012221462846FCF79EFC05B030BDE8
:1046100000040240002111A20846FEF7C5F813A2CB
:1046200004210020FEF7C0F814A202210020FEF7AA
:10463000BBF80020FFF72AFE0820FFF7D9FB002077
:10464000FFF778FD1148FFF777FAFDF79BFD012290
:1046500011460F48FCF778FCFEE7000020202035CB
:1046600031555742204E6F64650000002020777757
:10467000772E35317577622E636E00002020202062
:104680005278204E6F646520000000001D2900084C
:1046900000000240FDF750BEFDF720BE2DE9F047B7
:1046A0009A46154689468046FFF760FA0F4E044643
:1046B000002210213046FCF747FC4FF0FF373B4605
:1046C000424649460A48FDF74BF9AAB23B465146D5
:1046D0000748FDF745F9012210213046FCF734FC6C
:1046E0002046FFF73BFA0020BDE8F08700000240BB
:1046F0005C04002000000000000000000102030430
:104700000607080900000000010203040000000081
:10471000000000000000000000000000000000F8A1
:1047200000000000000000333000000000100C0604
:10473000100C0600000000000000000040C078409F
:10474000C0784000043F04043F040400007088FC6B
:1047500008300000001820FF211E0000F008F000C3
:10476000E018000000211C031E211E0000F0088834
:10477000700000001E2123241927211010160E009E
:10478000000000000000000000000000000000E049
:10479000180402000000000718204000000204185E
:1047A000E00000000040201807000000404080F0BA
:1047B000804040000202010F01020200000000F0F0
:1047C000000000000101011F0101010000000000C4
:1047D0000000000080B07000000000000000000039
:1047E00000000000000101010101010100000000C2
:1047F0000000000000303000000000000000000059
:1048000080601804006018060100000000E0100835
:104810000810E000000F102020100F00001010F80A
:10482000000000000020203F202000000070080849
:1048300008887000003028242221300000300888C9
:10484000884830000018202020110E000000C020F1
:1048500010F8000000070424243F240000F8088812
:10486000880808000019212020110E0000E010889F
:1048700088180000000F112020110E0000380808D1
:10488000C83808000000003F0000000000708808E1
:1048900008887000001C222121221C0000E0100862
:1048A0000810E0000000312222110F00000000C0BB
:1048B000C000000000000030300000000000008058
:1048C0000000000000008060000000000000804048
:1048D0002010080000010204081020004040404061
:1048E00040404000040404040404040000081020B4
:1048F00040800000002010080402010000704808F9
:104900000808F0000000003036010000C030C82860
:10491000E810E0000718272423140B000000C0381B
:10492000E0000000203C23020227382008F8888895
:1049300088700000203F202020110E00C0300808A1
:1049400008083800071820202010080008F8080878
:104950000810E000203F202020100F0008F8888871
:10496000E8081000203F20202320180008F888883D
:10497000E8081000203F200003000000C0300808B5
:104980000838000007182020221E020008F808003E
:104990000008F808203F210101213F20000808F805
:1049A000080800000020203F202000000000080828
:1049B000F8080800C08080807F00000008F888C0E8
:1049C00028180800203F20012638200008F8080099
:1049D00000000000203F20202020300008F8F800D0
:1049E000F8F80800203F003F003F200008F830C0E2
:1049F0000008F808203F200007183F00E0100808D2
:104A00000810E0000F10202020100F0008F8080800
:104A10000808F000203F210101010000E010080813
:104A20000810E0000F18242438504F0008F8888838
:104A300088887000203F2000030C30200070880818
:104A4000080838000038202121221C00180808F826
:104A5000080818000000203F2000000008F80800A7
:104A60000008F808001F202020201F000878880078
:104A700000C83808000007380E010000F80800F8E8
:104A80000008F800033C0700073C03000818688092
:104A90008068180820302C03032C30200838C80008
:104AA000C83808000000203F200000001008080857
:104AB000C83808002038262120201800000000FEF9
:104AC000020202000000007F40404000000C30C0A5
:104AD00000000000000000010638C00000020202D1
:104AE000FE000000004040407F0000000000040283
:104AF00002020400000000000000000000000000AE
:104B0000000000008080808080808080000202049D
:104B10000000000000000000000000000000808095
:104B2000808000000019242222223F2008F8008003
:104B300080000000003F112020110E0000000080C6
:104B400080800000000E1120202011000000008055
:104B50008088F800000E112020103F200000808087
:104B600080800000001F222222221300008080F09B
:104B7000888888180020203F2020000000008080C6
:104B800080808000006B94949493600008F800800B
:104B900080800000203F210000203F200080989866
:104BA000000000000020203F2020000000000080C6
:104BB0009898000000C08080807F000008F8000006
:104BC00080808000203F24022D302000000808F85B
:104BD000000000000020203F202000008080808016
:104BE00080808000203F20003F20003F80800080A8
:104BF00080800000203F210000203F2000008080B6
:104C000080800000001F202020201F008080008066
:104C10008000000080FFA12020110E000000008015
:104C200080808000000E112020A0FF808080800006
:104C30008080800020203F21200001000000808033
:104C4000808080000033242424241900008080E028
:104C5000808000000000001F2020000080800000F5
:104C600000808000001F202020103F2080808000D6
:104C70000080808000010E300806010080800080E6
:104C8000008080800F300C030C300F00008080000B
:104C9000808080000020312E0E3120008080800036
:104CA0000080808080818E701806010000808080E6
:104CB000808080000021302C222130000000000084
:104CC000807C020200000000003F40400000000025
:104CD000FF00000000000000FF0000000002027C56
:104CE000800000000040403F00000000000601017D
:104CF00002020404000000000000000000000102A5
:104D000003040005405C0000A05C0400C06C0800C7
:104D1000805C0400E03F1E00E07D1E0007040009E7
:104D20001E080540082609104008560805400826B8
:104D30001D040008BE1D040008BED8BC07A902253A
:104D400070889B88401008000A00160001000600C9
:104D50000100020087008D002D001A3152001A3325
:104D60009A001A351D011A376B003B31BE003B33E8
:104D70005E013B3596023B37000099599959EB513A
:104D80008F421E45142E0080EB51F5283333E13A53
:104D9000703DE13AC235852BC2353333C235C23559
:104DA000AE47E13A5138A330513800000102000308
:104DB00000000000000000000001010304050709D5
:104DC0000B0C0D0F121417191C1E2124282B2F3227
:104DD000363A3F42474C5259626D7F9BDEFFFF01DE
:104DE0000204050608090A0C0D0F121416181B1DE3
:104DF000202326292C2F33373A3E42474E55606FE9
:104E000087C2F0FF01020304050708090A0C0E100F
:104E1000121416181A1C1F2124272A2D3134373B4F
:104E20003F454C556278ADD5FF01010203040506EC
:104E3000060708090B0C0E0F1012141517191B1D6D
:104E40001F222426292C30353B44537894FF070732
:104E50000809090A0B0B0C0D0E0F10111213141573
:104E60001617181A1B1C1E1F20222426282A2C2E37
:104E700030323437393B3D3F4244474A4E51555911
:104E80005E63686E747B828B96A4B6CFEEFFFFFFE5
:104E9000FFFF0405050506060707070809090A0AB2
:104EA0000B0B0C0D0D0E0F101111121314151617FC
:104EB000191A1B1D1E1F202223242627282A2C2EC8
:104EC000303234373A3D4044484B50555C65707F32
:104ED00093A8B6C2CDFF010202030405070A0D1014
:104EE0001316181B1E2023262B30384E65789DFF85
:104EF00001020203040406090C0E111315181A1CF2
:104F00001F21252A314459698AFF01010203030444
:104F100005080A0D0F11131517191B1E21252C3C0E
:104F20004F5D7AFF010101020203040607090A0C22
:104F30000D0F10111315171A1E2A374155FF0708B8
:104F40000809090A0B0C0D0D0E0F10101112131386
:104F500014151618191B1C1D1E2021222325272974
:104F60002B2D303235383C40444A5159626D7A8895
:104F7000929AA2B2DCF9FFFFFF04050505060607B9
:104F800007080809090A0A0A0B0B0C0D0D0E0F1071
:104F900010111213131415161718191A1C1D1F219E
:104FA0002325272A2E32363C434B535A5F646E87A3
:104FB00099ACC0FF2F2A2A2A2A2A2A2A2A2A2A2AF0
:104FC0002A2A2A2A2A2A2A2A2A2A2A2A2A2A2A2A41
:104FD0002A2A2A2A2A2A2A2A2A2A2A2A2A2A2A2A31
:104FE0002A2A2A2A2A2A2A2A2A2A2A2A2A2A2A2A21
:104FF0002A2A2A2A2A2A2A2F0A0000002F2A2A2AA5
:105000002A2A2A2A2A2A2A2A2A2A2A2A2A2A2A2A00
:105010002A2A2A2A2A7777772E35317577622E63E6
:105020006E2A2A2A2A2A2A2A2A2A2A2A2A2A2A2A9C
:105030002A2A2A2A2A2A2A2A2A2A2A2F0A00000069
:105040002F2A2A2A2A2A2A2A2A2A2A2A2A2A2A2ABB
:105050002A2A2A2A2A2A464D2056657273696F6EBB
:105060002046342D56312E302A2A2A2A2A2A2A2A44
:105070002A2A2A2A2A2A2A2A2A2A2A2A2A2A2A2A90
:105080002F0A00002F2A2A2A2A2A2A2A2A4D6F723A
:105090006520496E666F726D6174696F6E20506C29
:1050A00065617365205669736974204F7572205766
:1050B0006562736974652A2A2A2A2A2A2A2A2A2AD0
:1050C0002A2A2A2F0A000000E850000800000020C9
:1050D000DC020000D4080008EC510008DC020020CB
:1050E000C406000000310008016420080202080222
:1050F000090901532104190A1182103324F41BF009
:1051000010012AFF050215F01B0F04012AFF0502FA
:10511000130F18094040405F55555575041A5F0C30
:10512000091121080C11200F094989790909090F72
:10513000201F112FFE02424ACA4A0304134202FEF4
:10514000000E14FF40504C4340404F50505C40FF15
:105150001BF888012AFF050215F81B1F08012A7F8A
:10516000200B109F80E23B808201000916E2A29290
:105170008A86828080041840807F172424A4FEA39E
:10518000221B22CCAA011415080601FF2B010401E1
:105190000511FF0202025808101010FF109008C3FA
:1051A000021108080F100444827F01808040432CC4
:1051B00010284681A0C00DE2A1C82481232C2E2FE7
:1051C000A4A6AF1DCDCCCC3EDE4A3F0479EE590CEF
:1051D0006918A904A924A32041290C6F803F0AD78C
:0C51E00023BC20190CE23CE93021000047
:040000050800019559
:00000001FF
